:020000001B28BB
:10000800FF00030E8301A7000A08A8008A01A20ABC
:100018000319A30A64003C308F00B0308E000C1026
:0E00280028088A00270E8300FF0E7F0E0900B5
:1000360083169F018F3081008312850183169901F3
:1000460007308312990007309A00F830831685002E
:100056006400113083129000C0308B003C308F005A
:10006600B0308E000C10013083168C008312A20172
:10007600A301A4010130A5000130A600051064000B
:100086008510051A6D28851A6D2800302302031D78
:100096004E28013022020318512805152308003C7A
:1000A600031D57282208013C031862282308003C38
:1000B600031D5F2822080F3C031C62280511230834
:1000C600003C031D682822080F3C03186C28A20177
:1000D600A3017D282E30FC007330FD00FD0B712836
:1000E600FC0B7128051A7A28851A7A287D28A5011D
:1000F600051405152508031D42280230FB00C730EC
:10010600FC008830FD00FD0B8628FC0B8628FB0BC7
:10011600862800000130A50064008519972805107F
:1001260005118514A501A601051EA1282408003A7B
:10013600031DA1280130A400A201A301051EB228B7
:100146002308003C031DA9282208233C0318B228D3
:10015600A5010510051185106400051AAF28051ABA
:10016600BD282308003C031DBA282208233C031C93
:10017600BD28A4012508031D8F280130A5002608E7
:10018600031D42286400051185140230FB0004306B
:10019600FC00BA30FD00FD0BCE28FC0BCE28FB0B75
:1001A600CE280000051185100230FB000430FC004B
:1001B600BA30FD00FD0BDD28FC0BDD28FB0BDD282E
:0601C6000000C528E52839
:02400E00C400EC
:00000001FF
