:020000001B28BB
:10000800FF00030E8301A7000A08A8008A01A20ABC
:100018000319A30A64003C308F00B0308E000C1026
:0E00280028088A00270E8300FF0E7F0E0900B5
:1000360083169F018F3081008312850183169901F3
:1000460007308312990007309A00F830831685002E
:100056006400113083129000C0308B003C308F005A
:10006600B0308E000C10013083168C008312A20172
:10007600A301A4010130A5000130A600051064000B
:100086008510051A6D28851A6D2800302302031D78
:100096004E28013022020318512805152308003C7A
:1000A600031D57282208013C031862282308003C38
:1000B600031D5F2822080F3C031C62280511230834
:1000C600003C031D682822080F3C03186C28A20177
:1000D600A3017D282E30FC007330FD00FD0B712836
:1000E600FC0B7128051A7A28851A7A287D28A5011D
:1000F600051405152508031D42280330FB008A3028
:10010600FC005530FD00FD0B8628FC0B8628FB0BFA
:100116008628000000000130A50064008519982893
:10012600051005118514A501A601051EA22824089F
:10013600003A031DA2280130A400A201A301051E56
:10014600BD282308003C031DAA282208233C0318C7
:10015600BD28A5010510051185108230FC00DD3093
:10016600FD00FD0BB428FC0BB42800000000640061
:10017600051ABA28051ACA282308003C031DC528F3
:100186002208233C031CCA28A401A201A3012508B6
:10019600031D90280130A5002608031D422864008F
:1001A600051185140230FB000430FC00BA30FD0056
:1001B600FD0BDB28FC0BDB28FB0BDB280000051105
:1001C60085100230FB000430FC00BA30FD00FD0B48
:1001D600EA28FC0BEA28FB0BEA280000D228F228C2
:02400E00C400EC
:00000001FF
