:100000000C94A100C9B13399C460488145B917FD6A
:100010000BC0429A4A9BFECF35B80FB7C53511F4D5
:1000200010E842980FBF18950FB71038E9F0113853
:10003000B9F11238C9F11338D9F11438A1F01538D3
:1000400089F0163871F0173859F0183841F045B872
:10005000429A4A9BFECF35B811270FBF18956FC043
:1000600069C05BC046C041C0C13459F0C23559F0C7
:10007000C73529F0C43549F0C33449F0E8CF15E855
:1000800007C011E805C013E803C016E801C017E86F
:1000900035B8429A4A9BFECF35B842980FBF1895A3
:1000A000C093100212E8F4CFC093110235B8D0CF3C
:1000B0004091110244234FEF39F4F999FECF40915A
:1000C000100241BDF89A40B540931202429545B9DD
:1000D00014E840911002439540931002D1F64091EC
:1000E0001102439540931102D4CF4091120245B9B9
:1000F000AFCFF999FECF4091100241BDC0BDFA9A31
:10010000F99A4091100243954093100229F44091CE
:1001100011024395409311029BCFCC2331F0C3953C
:1001200039F080FF94CF35B893CF8E7F8064F9CFBC
:100130008164F7CF452D429545B918E8AACF55B847
:1001400087CF2FEF2DBF24E02EBF25E02093810025
:1001500022E02093690021E02DBB2FE324B92FEF8B
:1001600025B927E027B923E028B920E02AB92FEFE5
:100170002BB920E820BF44242FEF322E409842981C
:1001800039D228E0722E3DD29FEFCBD118F47A9469
:10019000D1F703C05CD2F5D130F4429A409A35B819
:1001A00020E224B9FFCFA9D1A3D19CD1429A409A91
:1001B00087D1789447D23D98349B0CC0B09BFCCF3C
:1001C0003D9A86FF04C08F7B982F92D18BD177FF09
:1001D000F1CFF6C0DBD160F3903F11F47260EACF4B
:1001E000913EC9F427E0722ECBD17A94E9F7F894C6
:1001F0000DD24298C5D1F0F3913E11F4429AF2CF5C
:1002000024E0903E09F022E0722EBAD188F27A946E
:10021000E1F7429ACDCF903E19F420E8622ECACF82
:10022000933809F498E0962971FD49C0591611F2E6
:10023000592E923999F0993D89F0943879F09C3F84
:1002400071F423E040984298722E9AD17A94E9F79B
:10025000DDD18370982F4CD1429A409AABCF9F3A10
:1002600011F47460A7CF993511F0923111F47061D7
:1002700050C0973011F406D29DCF973711F422E089
:1002800003C09E3749F421E0982F74FD03C09227E4
:100290002FD18ECF37D18CCF983529F4982F24E0E9
:1002A000922726D198E5B2E0A0E02D91291731F0F0
:1002B000222311F49E932DC0A3FFF7CF7BCF7D7F28
:1002C00066249239D9F3993DC9F39F3A49F47B7F6B
:1002D000E0911302F0911402319609F070686ACF30
:1002E000993511F0923111F4716013C0B2E0A0E0C1
:1002F0002D91291719F0A3FFFBCF5ACF662455245F
:10030000A3FF02C05E9205C02C912E93A395A395E6
:10031000F7CFB2E0A8E03D92A4FFFDCF72FD3AC056
:10032000777FA0E02D91222339F0F8E0E0E0E20FA2
:1003300008F4F395C89589D0A3FFF4CF73FD04C0EA
:1003400086D074FF35CFAAD001D034CFB2E0A8E078
:10035000FF27E8E02D912193A031E1F7B1E0AFEF65
:10036000AC93AA952FEFA0FF2821A1FF2921A2FF7E
:100370002A21A3FF2B21A4FF2C21A5FF2D21A6FFBD
:100380002E21A7FF2F212C93AA2359F7A5E52AEAAE
:100390002C930895B2E0A0E02D91222319F4A83007
:1003A000D9F708CFF9E0E0E8220FE20F08F4F3955F
:1003B000C89500921402E395C89500921302FACEF4
:1003C00020D1B2E0A8E03D92A031E9F7E09113021C
:1003D000F0911402C895202D2A3C08F0E9CE0020A7
:1003E00071F012F406FC15C0051411F45524ACCFBD
:1003F000252D213321F45524A9DFFED0DBCE502C4E
:100400003196E0931302F0931402002009F02AD0F1
:100410009BCF55243196E0931302F0931402202DC4
:100420002F73220FEEE5F6E0E20F08F4F395259125
:10043000F491E22F319609F487CF3197EF93FF9330
:1004400085DFFF91EF9109957FCF002021F470FFA8
:1004500008957E7E089507FE02C006FC23C0F7DFE4
:1004600074FD1CD0786007FC15D006FC17D0202D39
:100470002770122E2EEF1A9419F00894221FFBCF2A
:10048000F2E0E02DEE0FE295E770E85F10801222B7
:1004900010820895F2E0E8E02EEFF8CFF2E0EFE00E
:1004A0002DEFF4CF202D2F73220FF9E0E0E0E20FC3
:1004B00008F4F395C89574FFD5CFE395C895D2CFCE
:1004C000B2E0A0E04D92A3FFFDCFB1E0A0E03D92ED
:1004D000AA23E9F7772730921302309214025524A9
:1004E0006624D1E0282F20FF259820FD259A089525
:1004F000892F9DEE16D0982F14C050E00CD0937029
:10050000892F0895937050E0F999FECF51BD90BDA9
:10051000FA9AF99A0895F999FECF51BDF89A90B5D3
:10052000089505D018F02CD008F09A3F08953D9A10
:1005300073D03C9A74D03D9880D054D0F8F078D0E5
:1005400038E0222402C04ED0C8F0979510F03C9AB3
:1005500002C03C98239440D088F03A95A1F742D04D
:1005600068F03C9820FC3C9A37D040F03BD030F00B
:100570003C9832D018F036D008F02ED03C98089530
:1005800061D03D98B09924C03499FCCF51D02AD085
:10059000F8F022D0E8F038E0222424D0C8F0889483
:1005A000349B02C023940894979516D088F03A950E
:1005B000A1F718D068F0349923940ED048F012D0E7
:1005C00038F00AD028F0222D20FF02C03D9A08956D
:1005D000992708943D9A0895B0990AC0359BFCCF9D
:1005E00088940895B09904C03599FCCF88940895F3
:1005F0000894089534E601C032E308D03A95E9F74B
:1006000008953FE003D03A95E9F7089524E6122EC5
:1006100003D01A94E9F7089528EC02C02EE12AE0ED
:10062000000000C000C000C000C02A95C9F70895AE
:100630002FEF2093850022ED0EC02EEF2093850032
:1006400021EA09C02EEF209385002CE204C029E4A2
:100650002093850020E320938400B09A0895390305
:1006600042034603500355035A035F036603A10088
:10067000660340984298C5DF8370982F39DF429A0D
:10068000409A08954198C2DF419A0895E09113027B
:10069000F09114023591E0931302F0931402ADCF60
:1006A0009DEE3FDF90E0892F3CCF9DEE3ADF282F73
:1006B00094E009C09DEE35DF282F92E004C09DEE46
:0E06C00030DF282F91E09227892F2BCF08954D
:1007E0005A584B4220762E312E330D0A6B326B4015
:1007F0006C6973742E72750D0A00313233343536DC
:10080000FF4BFF6C53515200494C4A6B6D99C0FF2E
:10081000FF9B3AFF011119FFFFFF020A09121AFF9D
:10082000FF04030B131C1BFFFF39050C15141DFFE0
:10083000FF3C3D350D2DCBFFFFFF3B342CCCCDFFD6
:10084000FFC1332B2ACFCE4BFFC2C332C429C5FF11
:10085000FFFFC6FFC7C8FFFFD00031C9FFCA0000B5
:10086000FFFFFFFFFFFFA1FFFF19FF1C24FFFFFF9A
:10087000217B1A1D2523BA00A2731B747D2200FF61
:10088000FFFFFFFFFFFFFFFFFFFFFFFFFFFFFFFF78
:10089000FF9C00FFFFFFFFFFFFFFFFFFFFFFFF7158
:1008A000FFFFFFFFFFFFFF71FFFFFFFFFFFFFF00E5
:1008B000FFFFFFFFFFFFFF00FFFFFFFFFFFFFF0046
:1008C000FFFFFFFFFFFFFFFFFFFF45FFFFFFFFFFF2
:1008D000FFFFFFFFFFFFFFFFFFFF31FFFFFF00FFF5
:1008E000FFFFFFFFFFFFFFFFFF53FF9D51FFFFFFD4
:1008F00052A2A5FFA3A4FFFFFFFF9CFFFF9BFFFFEA
:1009000043497C547B5545446A42746164696D4C2B
:1009100072736C4D4B4A25752465237D22632162D9
:020920009A003B
:10098000FFFFFFFFFFFFFFFFFFFFFFFF0A80FFFFEB
:10099000FFFF0BA1FFFFFFFFFFFFFFFFFFFFFFFFB9
:1009A000FFFFFFFFFFFFFFFFFFFFFFFFFFFFFFFF57
:1009B000FFFFFFFFFFFFFFFFFFFFFFFFFFFFFFFF47
:1009C000FFFFFFFFFFFFFFFFFFFFFFFFFFFFFFFF37
:1009D000FFFFFFFF0B82FFFF0B8F0B99FFFFFFFF56
:1009E000FFFFFFFFFFFFFFFFFFFFFFFFFFFFFFFF17
:1009F000FFFFFFFFFFFFFFFFFFFFFFFFFFFFFFFF07
:100A0000FFFFFFFFFFFFFFFFFFFFFFFFFFFFFFFFF6
:100A1000FFFFFFFFFFFF0BE0FFFFFFFFFFFFFFFFF9
:100A2000FFFFFFFFFFFFFFFFFFFFFFFFFFFFFFFFD6
:100A3000FFFFFFFFFFFFFFFFFFFFFFFFFFFFFFFFC6
:100A4000FFFFFFFFFFFFFFFFFFFFFFFFFFFFFFFFB6
:100A5000FFFFFFFFFFFFFFFFFFFFFFFFFFFFFFFFA6
:100A60000B810B7FFFFFFFFFFFFFFFFF0BE8FFFF87
:100A70000AD5FFFFFFFFFFFFFFFFFFFFFFFFFFFFA5
:100A800019296B217C216A311A29416B251C1A1AFC
:100A90001B6A693939696A311B29416B251C1C2481
:100AA000226A693939696A311C29416B251D1D216A
:100AB0001B6A693939696A311D11416B251C1C2477
:100AC000227C416B251D1D211B45197B1D31250DE8
:100AD00019311431FF193209721B1A242523311AD6
:100AE0000C2B72194C1A234241090B422A09732B11
:100AF0007C0B423C2B311B15413263097319623167
:100B00001C296B217C216A412A096A6939396931BA
:100B10001D0D1B3125410B1A1C1B7C251A7C231D26
:100B20007C1A19227C1A1D1C7C251A7C25247C1A0F
:100B300019227C1A1D1C3124410B1A19227C1A1D02
:100B40001C7C247C247C247C247C1A1B217C1A1C85
:100B5000217C24227C1A19227C1A1D1C3123410B72
:100B60001A1B217C191D7C1924247C1D217C217CCD
:100B7000191A237C1A1D197C1A2119311431FFC04E
:100B8000FFC8698283B3BD39057B197B1B69FF15DB
:100B90004132191D25192531FF154132191D25191D
:100BA000FF19417D21311A0C0972214C1A19311B90
:100BB0000C0A72214C24311C2C095519214D417D00
:100BC00019311D41440A4229006939393939696AA4
:100BD00031253C0A423C093124417D21311431FF49
:100BE000C0C26434696931FFC0C232B2AA898B695C
:030BF0006931FF69
:00000001FF
