:100000000C94A500C9B13399C460488145B917FD66
:100010000DC0429A4A9BFECF35B880FD42980FB77B
:10002000C53511F410E842980FBF18950FB7103876
:10003000F9F01138C9F11238D9F11338E9F114384F
:10004000B1F0153899F0163881F0173869F0183882
:1000500051F045B8429A4A9BFECF35B880FD429890
:1000600011270FBF18956FC069C05BC046C041C063
:10007000C13459F0C23559F0C73529F0C43549F0BB
:10008000C33449F0E6CF15E807C011E805C013E80E
:1000900003C016E801C017E835B8429A4A9BFECF64
:1000A00035B842980FBF1895C093100212E8F4CFEC
:1000B000C093110235B8CECF4091110244234FEFC7
:1000C00039F4F999FECF4091100241BDF89A40B53C
:1000D00040931202429545B914E8409110024395AD
:1000E00040931002D1F640911102439540931102C2
:1000F000D4CF4091120245B9ADCFF999FECF4091CE
:10010000100241BDC0BDFA9AF99A40911002439580
:100110004093100229F4409111024395409311023B
:1001200099CFCC2331F0C39539F080FF92CF35B809
:1001300091CF8E7F8064F9CF8164F7CF452D4295B2
:1001400045B918E8AACF55B885CF2FEF2DBF24E0C9
:100150002EBF25E02093810022E02093690021E05A
:100160002DBB2FE324B92FEF25B927E027B923E0D2
:1001700028B920E02AB92FEF2BB920E820BF44246A
:100180002FEF322E4098429839D228E0722E3DD27D
:100190009FEFCBD118F47A94D1F703C05CD2F5D19C
:1001A00030F4429A409A35B820E224B9FFCFA9D161
:1001B000A3D19CD1429A409A87D1789447D23D9856
:1001C000349B0CC0B09BFCCF3D9A86FF04C08F7B54
:1001D000982F92D18BD177FDF1C0F0CFDBD160F3B6
:1001E000903F11F47260EACF913EC9F427E0722E7D
:1001F000CBD17A94E9F7F8940DD24298C5D1F0F3B7
:10020000913E11F4429AF2CF24E0903E09F022E0B0
:10021000722EBAD188F27A94E1F7429ACDCF903E0D
:1002200019F420E8622ECACF933809F498E0962991
:1002300071FD49C0591611F2592E923991F0993D2C
:1002400081F0943871F09C3F69F423E04098429823
:10025000722E9AD17A94E9F7DDD183704DD1429A0A
:10026000409AACCF9F3A11F47460A8CF993511F041
:10027000923111F470614BC0973011F407D29ECFC8
:10028000973711F422E003C09E3751F421E0982FF4
:1002900074FD04C09227892F2FD18ECF37D18CCFF8
:1002A000983529F4982F24E0922726D198E5B2E0DA
:1002B000A0E02D91291731F0222311F49E9327C03D
:1002C000A3FFF7CF7BCF7D7F66249239D9F3993D89
:1002D000C9F39F3A19F47B7F706870CF993511F09C
:1002E000923111F4716013C0B2E0A0E02D91291792
:1002F00019F0A3FFFBCF60CF66245524A3FF02C0F3
:100300005E9205C02C912E93A395A395F7CFB2E0F2
:10031000A8E03D92A4FFFDCF72FD3AC0777FA0E038
:100320002D91222339F0F8E0E0E0E20F08F4F39594
:10033000C8958FD0A3FFF4CF73FD04C08CD074FF99
:100340003BCFB0D001D03ACFB2E0A8E0FF27E8E041
:100350003D913193A4FFFCCFB1E0AFEFAC93AA95F0
:100360002FEFA0FF2821A1FF2921A2FF2A21A3FF0F
:100370002B21A4FF2C21A5FF2D21A6FF2E21A7FFB5
:100380002F212C93AA2359F7A5E52AEA2C93089547
:10039000B2E0A0E02D91222319F4A830D9F70ECFB6
:1003A000F9E0E0E8220FE20F08F4F395C895009217
:1003B0001402E395C8950092130200CFE091130256
:1003C000F0911402319641F120D1B2E0A8E02FEF74
:1003D0002D93A4FFFDCFE0911302F0911402C89574
:1003E0000394D1F00A9471F012F406FC16C00514BF
:1003F00011F45524A7CF252D213321F45524A4DF52
:10040000FFD0DCCE502C3196E0931302F09314020F
:10041000002009F02BD096CFCFCE502C3196E09310
:100420001302F0931402202D2F73220FE6E6F6E05C
:10043000E20F08F4F3952591F491E22F319609F437
:1004400081CF3197EF93FF937FDFFF91EF91099574
:1004500079CF002021F470FF08957E7E089507FE75
:1004600002C006FC23C0F7DF74FD1CD0786007FCD7
:1004700015D006FC17D0202D2770122E2EEF1A94BF
:1004800019F00894221FFBCFF2E0E02DEE0FE29569
:10049000E770E85F1080122210820895F2E0E8E031
:1004A0002EEFF8CFF2E0EFE02DEFF4CF202D2F73F9
:1004B000220FF9E0E0E0E20F08F4F395C89574FF2D
:1004C000D5CFE395C895D2CFB2E0A0E04D92A3FF7F
:1004D000FDCFB1E0A0E03D92AA23E9F77727309263
:1004E00013023092140255246624D1E0282F20FFF5
:1004F000259820FD259A0895892F9DEE16D0982FD6
:1005000014C050E00CD09370892F0895937050E080
:10051000F999FECF51BD90BDFA9AF99A0895F999CB
:10052000FECF51BDF89A90B5089505D018F02CD0A3
:1005300008F09A3F08953D9A73D03C9A74D03D9844
:1005400080D054D0F8F078D038E0222402C04ED0C9
:10055000C8F0979510F03C9A02C03C98239440D084
:1005600088F03A95A1F742D068F03C9820FC3C9A7C
:1005700037D040F03BD030F03C9832D018F036D035
:1005800008F02ED03C98089561D03D98B09924C0D1
:100590003499FCCF51D02AD0F8F022D0E8F038E0DE
:1005A000222424D0C8F08894349B02C02394089459
:1005B000979516D088F03A95A1F718D068F034993D
:1005C00023940ED048F012D038F00AD028F0222D13
:1005D00020FF02C03D9A0895992708943D9A0895F6
:1005E000B0990AC0359BFCCF88940895B09904C097
:1005F0003599FCCF889408950894089534E601C095
:1006000032E308D03A95E9F708953FE003D03A95F0
:10061000E9F7089524E6122E03D01A94E9F7089515
:1006200028EC02C02EE12AE0000000C000C000C09B
:1006300000C02A95C9F708952FEF2093850022ED79
:100640000EC02EEF2093850021EA09C02EEF2093E3
:1006500085002CE204C029E42093850020E3209348
:100660008400B09A08953D0346034A035403590396
:100670005E0363036A03A5006A0340984298C5DFDE
:1006800040DF3ADF2CDF429A409A08954198C2DF5A
:10069000419A0895E0911302F09114023591E0938C
:1006A0001302F0931402ADCF9DEE3FDF90E0892F4F
:1006B0003CCF9DEE3ADF282F94E009C09DEE35DF58
:1006C000282F92E004C09DEE30DF282F91E0922782
:0606D000892F2BCF0895D5
:1007E0005A584B4220762E312E300D0A6B326B4018
:1007F0006C6973742E72750D0A00313233343536DC
:10080000FF4BFF6C53515200494C4A6B6D99C0FF2E
:10081000FF9B3AFF011119FFFFFF020A09121AFF9D
:10082000FF04030B131C1BFFFF39050C15141DFFE0
:10083000FF3C3D350D2DCBFFFFFF3B342CCCCDFFD6
:10084000FFC1332B2ACFCE4BFFC2C332C429C5FF11
:10085000FFFFC6FFC7C8FFFFD00031C9FFCA0000B5
:10086000FFFFFFFFFFFFA1FFFF19FF1C24FFFFFF9A
:10087000217B1A1D2523BA00A2731B747D2200FF61
:10088000FFFFFFFFFFFFFFFFFFFFFFFFFFFFFFFF78
:10089000FF9C00FFFFFFFFFFFFFFFFFFFFFFFF7158
:1008A000FFFFFFFFFFFFFF71FFFFFFFFFFFFFF00E5
:1008B000FFFFFFFFFFFFFF00FFFFFFFFFFFFFF0046
:1008C000FFFFFFFFFFFFFFFFFFFF45FFFFFFFFFFF2
:1008D000FFFFFFFFFFFFFFFFFFFF31FFFFFF00FFF5
:1008E000FFFFFFFFFFFFFFFFFF53FF9D51FFFFFFD4
:1008F00052A2A5FFA3A4FFFFFFFF9CFFFF9BFFFFEA
:1009000043497C547B5545446A42746164696D4C2B
:1009100072736C4D4B4A25752465237D22632162D9
:020920009A003B
:10098000FFFFFFFFFFFFFFFFFFFFFFFF0A80FFFFEB
:10099000FFFF0BA6FFFFFFFFFFFFFFFFFFFFFFFFB4
:1009A000FFFFFFFFFFFFFFFFFFFFFFFFFFFFFFFF57
:1009B000FFFFFFFFFFFFFFFFFFFFFFFFFFFFFFFF47
:1009C000FFFFFFFFFFFFFFFFFFFFFFFFFFFFFFFF37
:1009D000FFFFFFFF0B82FFFF0B8F0B99FFFFFFFF56
:1009E000FFFFFFFFFFFFFFFFFFFFFFFFFFFFFFFF17
:1009F000FFFFFFFFFFFFFFFFFFFFFFFFFFFFFFFF07
:100A0000FFFFFFFFFFFFFFFFFFFFFFFFFFFFFFFFF6
:100A1000FFFFFFFFFFFF0BA1FFFFFFFFFFFFFFFF38
:100A2000FFFFFFFFFFFFFFFFFFFFFFFFFFFFFFFFD6
:100A3000FFFFFFFFFFFFFFFFFFFFFFFFFFFFFFFFC6
:100A4000FFFFFFFFFFFFFFFFFFFFFFFFFFFFFFFFB6
:100A5000FFFFFFFFFFFFFFFFFFFFFFFFFFFFFFFFA6
:100A60000B810B7FFFFFFFFFFFFFFFFFFFFFFFFF7C
:100A70000AD5FFFFFFFFFFFFFFFFFFFFFFFFFFFFA5
:100A800019296B217C216A311A29416B251C1A1AFC
:100A90001B6A693939696A311B29416B251C1C2481
:100AA000226A693939696A311C29416B251D1D216A
:100AB0001B6A693939696A311D11416B251C1C2477
:100AC000227C416B251D1D211B45197B1D31250DE8
:100AD00019311431FF193209721B1A242523311AD6
:100AE0000C2B72194C1A234241090B422A09732B11
:100AF0007C0B423C2B311B15413263097319623167
:100B00001C296B217C216A412A096A6939396931BA
:100B10001D0D1B3125410B1A1C1B7C251A7C231D26
:100B20007C1A19227C1A1D1C7C251A7C25247C1A0F
:100B300019227C1A1D1C3124410B1A19227C1A1D02
:100B40001C7C247C247C247C247C1A1B217C1A1C85
:100B5000217C24227C1A19227C1A1D1C3123410B72
:100B60001A1B217C191D7C1924247C1D217C217CCD
:100B7000191A237C1A1D197C1A2119311431FFC04E
:100B8000FFC8698283B3BD39057B197B1A69FF15DC
:100B90004132191D25192531FF154132191D25191D
:100BA000FF34696931FF19417D21311A0C09722125
:100BB0004C1A19311B0C0A72214C24311C2C09557A
:100BC00019214D417D19311D41440A4229006939DD
:100BD000393939696A31253C0A423C093124417D61
:050BE00021311431FF7A
:00000001FF
